{
  "contractName": "EnglishAuction",
  "abi": [
    {
      "inputs": [
        {
          "internalType": "contract Diamond",
          "name": "_token",
          "type": "address"
        },
        {
          "internalType": "address",
          "name": "_auction_owner",
          "type": "address"
        },
        {
          "internalType": "uint256",
          "name": "_biddingTime",
          "type": "uint256"
        },
        {
          "internalType": "address payable",
          "name": "_beneficiary",
          "type": "address"
        },
        {
          "internalType": "uint256",
          "name": "_startPrice",
          "type": "uint256"
        },
        {
          "internalType": "uint256",
          "name": "_token_id",
          "type": "uint256"
        },
        {
          "internalType": "uint256",
          "name": "_step_min",
          "type": "uint256"
        },
        {
          "internalType": "uint256",
          "name": "_step_max",
          "type": "uint256"
        }
      ],
      "payable": false,
      "stateMutability": "nonpayable",
      "type": "constructor"
    },
    {
      "anonymous": false,
      "inputs": [
        {
          "indexed": false,
          "internalType": "address",
          "name": "winner",
          "type": "address"
        },
        {
          "indexed": false,
          "internalType": "uint256",
          "name": "amount",
          "type": "uint256"
        }
      ],
      "name": "AuctionEnded",
      "type": "event"
    },
    {
      "anonymous": false,
      "inputs": [
        {
          "indexed": false,
          "internalType": "address",
          "name": "bidder",
          "type": "address"
        },
        {
          "indexed": false,
          "internalType": "uint256",
          "name": "amount",
          "type": "uint256"
        }
      ],
      "name": "HighestBidIncreased",
      "type": "event"
    },
    {
      "constant": true,
      "inputs": [],
      "name": "auctionEndTime",
      "outputs": [
        {
          "internalType": "uint256",
          "name": "",
          "type": "uint256"
        }
      ],
      "payable": false,
      "stateMutability": "view",
      "type": "function"
    },
    {
      "constant": true,
      "inputs": [],
      "name": "auctionState",
      "outputs": [
        {
          "internalType": "enum EnglishAuction.AuctionStates",
          "name": "",
          "type": "uint8"
        }
      ],
      "payable": false,
      "stateMutability": "view",
      "type": "function"
    },
    {
      "constant": true,
      "inputs": [],
      "name": "beneficiary",
      "outputs": [
        {
          "internalType": "address payable",
          "name": "",
          "type": "address"
        }
      ],
      "payable": false,
      "stateMutability": "view",
      "type": "function"
    },
    {
      "constant": true,
      "inputs": [],
      "name": "highestBid",
      "outputs": [
        {
          "internalType": "uint256",
          "name": "",
          "type": "uint256"
        }
      ],
      "payable": false,
      "stateMutability": "view",
      "type": "function"
    },
    {
      "constant": true,
      "inputs": [],
      "name": "highestBidder",
      "outputs": [
        {
          "internalType": "address",
          "name": "",
          "type": "address"
        }
      ],
      "payable": false,
      "stateMutability": "view",
      "type": "function"
    },
    {
      "constant": true,
      "inputs": [],
      "name": "is_ended",
      "outputs": [
        {
          "internalType": "bool",
          "name": "",
          "type": "bool"
        }
      ],
      "payable": false,
      "stateMutability": "view",
      "type": "function"
    },
    {
      "constant": true,
      "inputs": [
        {
          "internalType": "address",
          "name": "",
          "type": "address"
        }
      ],
      "name": "participant_latest_bid",
      "outputs": [
        {
          "internalType": "uint256",
          "name": "",
          "type": "uint256"
        }
      ],
      "payable": false,
      "stateMutability": "view",
      "type": "function"
    },
    {
      "constant": true,
      "inputs": [],
      "name": "startPrice",
      "outputs": [
        {
          "internalType": "uint256",
          "name": "",
          "type": "uint256"
        }
      ],
      "payable": false,
      "stateMutability": "view",
      "type": "function"
    },
    {
      "constant": true,
      "inputs": [],
      "name": "step_max",
      "outputs": [
        {
          "internalType": "uint256",
          "name": "",
          "type": "uint256"
        }
      ],
      "payable": false,
      "stateMutability": "view",
      "type": "function"
    },
    {
      "constant": true,
      "inputs": [],
      "name": "step_min",
      "outputs": [
        {
          "internalType": "uint256",
          "name": "",
          "type": "uint256"
        }
      ],
      "payable": false,
      "stateMutability": "view",
      "type": "function"
    },
    {
      "constant": true,
      "inputs": [],
      "name": "token_id",
      "outputs": [
        {
          "internalType": "uint256",
          "name": "",
          "type": "uint256"
        }
      ],
      "payable": false,
      "stateMutability": "view",
      "type": "function"
    },
    {
      "constant": false,
      "inputs": [
        {
          "internalType": "enum EnglishAuction.AuctionStates",
          "name": "state",
          "type": "uint8"
        }
      ],
      "name": "changeAuctionState",
      "outputs": [],
      "payable": false,
      "stateMutability": "nonpayable",
      "type": "function"
    },
    {
      "constant": false,
      "inputs": [],
      "name": "bid",
      "outputs": [],
      "payable": true,
      "stateMutability": "payable",
      "type": "function"
    },
    {
      "constant": true,
      "inputs": [
        {
          "internalType": "address",
          "name": "_address",
          "type": "address"
        }
      ],
      "name": "get_latest_bid",
      "outputs": [
        {
          "internalType": "uint256",
          "name": "",
          "type": "uint256"
        }
      ],
      "payable": false,
      "stateMutability": "view",
      "type": "function"
    },
    {
      "constant": true,
      "inputs": [],
      "name": "bid_range",
      "outputs": [
        {
          "internalType": "uint256",
          "name": "",
          "type": "uint256"
        },
        {
          "internalType": "uint256",
          "name": "",
          "type": "uint256"
        }
      ],
      "payable": false,
      "stateMutability": "view",
      "type": "function"
    },
    {
      "constant": false,
      "inputs": [],
      "name": "withdraw",
      "outputs": [
        {
          "internalType": "bool",
          "name": "",
          "type": "bool"
        }
      ],
      "payable": false,
      "stateMutability": "nonpayable",
      "type": "function"
    },
    {
      "constant": false,
      "inputs": [],
      "name": "auctionEnd",
      "outputs": [],
      "payable": false,
      "stateMutability": "nonpayable",
      "type": "function"
    }
  ],
  "bytecode": "0x608060405234801561001057600080fd5b50604051612048380380612048833981810160405261010081101561003457600080fd5b81019080805190602001909291908051906020019092919080519060200190929190805190602001909291908051906020019092919080519060200190929190805190602001909291908051906020019092919050505087600260016101000a81548173ffffffffffffffffffffffffffffffffffffffff021916908373ffffffffffffffffffffffffffffffffffffffff160217905550846000806101000a81548173ffffffffffffffffffffffffffffffffffffffff021916908373ffffffffffffffffffffffffffffffffffffffff1602179055508542016001819055508360068190555086600360006101000a81548173ffffffffffffffffffffffffffffffffffffffff021916908373ffffffffffffffffffffffffffffffffffffffff16021790555082600c8190555081600781905550806008819055506000600260006101000a81548160ff0219169083600281111561019157fe5b02179055505050505050505050611e9b806101ad6000396000f3fe6080604052600436106100fe5760003560e01c8063617687e31161009557806391f901571161006457806391f901571461039b578063d3a4a53e146103f2578063d566813114610424578063d57bde791461044f578063f1a9af891461047a576100fe565b8063617687e3146102945780637ad00cd0146102f95780637fb450991461033757806385b01da014610370576100fe565b80633ccfd60b116100d15780633ccfd60b146101aa57806348cb6b77146101d95780634b449cba1461020457806350a43f611461022f576100fe565b80631998aeef146101035780632452cd301461010d5780632a24f46c1461013c57806338af3eed14610153575b600080fd5b61010b6104a5565b005b34801561011957600080fd5b50610122610bd9565b604051808215151515815260200191505060405180910390f35b34801561014857600080fd5b50610151610bec565b005b34801561015f57600080fd5b506101686110f2565b604051808273ffffffffffffffffffffffffffffffffffffffff1673ffffffffffffffffffffffffffffffffffffffff16815260200191505060405180910390f35b3480156101b657600080fd5b506101bf611117565b604051808215151515815260200191505060405180910390f35b3480156101e557600080fd5b506101ee6114c4565b6040518082815260200191505060405180910390f35b34801561021057600080fd5b506102196114ca565b6040518082815260200191505060405180910390f35b34801561023b57600080fd5b5061027e6004803603602081101561025257600080fd5b81019080803573ffffffffffffffffffffffffffffffffffffffff1690602001909291905050506114d0565b6040518082815260200191505060405180910390f35b3480156102a057600080fd5b506102e3600480360360208110156102b757600080fd5b81019080803573ffffffffffffffffffffffffffffffffffffffff169060200190929190505050611519565b6040518082815260200191505060405180910390f35b34801561030557600080fd5b506103356004803603602081101561031c57600080fd5b81019080803560ff169060200190929190505050611531565b005b34801561034357600080fd5b5061034c611c39565b6040518082600281111561035c57fe5b60ff16815260200191505060405180910390f35b34801561037c57600080fd5b50610385611c4c565b6040518082815260200191505060405180910390f35b3480156103a757600080fd5b506103b0611c52565b604051808273ffffffffffffffffffffffffffffffffffffffff1673ffffffffffffffffffffffffffffffffffffffff16815260200191505060405180910390f35b3480156103fe57600080fd5b50610407611c78565b604051808381526020018281526020019250505060405180910390f35b34801561043057600080fd5b50610439611d04565b6040518082815260200191505060405180910390f35b34801561045b57600080fd5b50610464611d0a565b6040518082815260200191505060405180910390f35b34801561048657600080fd5b5061048f611d10565b6040518082815260200191505060405180910390f35b600260019054906101000a900473ffffffffffffffffffffffffffffffffffffffff1673ffffffffffffffffffffffffffffffffffffffff16639d36788e600c546040518263ffffffff1660e01b81526004018082815260200191505060206040518083038186803b15801561051a57600080fd5b505afa15801561052e573d6000803e3d6000fd5b505050506040513d602081101561054457600080fd5b81019080805190602001909291905050506105c7576040517f08c379a00000000000000000000000000000000000000000000000000000000081526004018080602001828103825260138152602001807f546f6b656e20646f65736e27742065786973740000000000000000000000000081525060200191505060405180910390fd5b600160028111156105d457fe5b600260009054906101000a900460ff1660028111156105ef57fe5b14610645576040517f08c379a000000000000000000000000000000000000000000000000000000000815260040180806020018281038252602b815260200180611de8602b913960400191505060405180910390fd5b6001544211156106bd576040517f08c379a00000000000000000000000000000000000000000000000000000000081526004018080602001828103825260168152602001807f41756374696f6e20616c726561647920656e6465642e0000000000000000000081525060200191505060405180910390fd5b600460009054906101000a900473ffffffffffffffffffffffffffffffffffffffff1673ffffffffffffffffffffffffffffffffffffffff163373ffffffffffffffffffffffffffffffffffffffff161415610764576040517f08c379a0000000000000000000000000000000000000000000000000000000008152600401808060200182810382526021815260200180611d496021913960400191505060405180910390fd5b600654600a60003373ffffffffffffffffffffffffffffffffffffffff1673ffffffffffffffffffffffffffffffffffffffff16815260200190815260200160002054340110156107b457600080fd5b6000806107bf611c78565b91509150600060055414156108b95781600a60003373ffffffffffffffffffffffffffffffffffffffff1673ffffffffffffffffffffffffffffffffffffffff16815260200190815260200160002054340111801561085f575080600a60003373ffffffffffffffffffffffffffffffffffffffff1673ffffffffffffffffffffffffffffffffffffffff16815260200190815260200160002054340111155b6108b4576040517f08c379a0000000000000000000000000000000000000000000000000000000008152600401808060200182810382526028815260200180611dc06028913960400191505060405180910390fd5b6109a0565b81600a60003373ffffffffffffffffffffffffffffffffffffffff1673ffffffffffffffffffffffffffffffffffffffff16815260200190815260200160002054340111801561094a575080600a60003373ffffffffffffffffffffffffffffffffffffffff1673ffffffffffffffffffffffffffffffffffffffff16815260200190815260200160002054340111155b61099f576040517f08c379a0000000000000000000000000000000000000000000000000000000008152600401808060200182810382526021815260200180611e466021913960400191505060405180910390fd5b5b600060055414610a7257600a6000600460009054906101000a900473ffffffffffffffffffffffffffffffffffffffff1673ffffffffffffffffffffffffffffffffffffffff1673ffffffffffffffffffffffffffffffffffffffff1681526020019081526020016000205460096000600460009054906101000a900473ffffffffffffffffffffffffffffffffffffffff1673ffffffffffffffffffffffffffffffffffffffff1673ffffffffffffffffffffffffffffffffffffffff168152602001908152602001600020819055505b33600460006101000a81548173ffffffffffffffffffffffffffffffffffffffff021916908373ffffffffffffffffffffffffffffffffffffffff16021790555034600a6000600460009054906101000a900473ffffffffffffffffffffffffffffffffffffffff1673ffffffffffffffffffffffffffffffffffffffff1673ffffffffffffffffffffffffffffffffffffffff168152602001908152602001600020540160058190555034600a60003373ffffffffffffffffffffffffffffffffffffffff1673ffffffffffffffffffffffffffffffffffffffff168152602001908152602001600020600082825401925050819055507ff4757a49b326036464bec6fe419a4ae38c8a02ce3e68bf0809674f6aab8ad3003334604051808373ffffffffffffffffffffffffffffffffffffffff1673ffffffffffffffffffffffffffffffffffffffff1681526020018281526020019250505060405180910390a15050565b600b60009054906101000a900460ff1681565b600360009054906101000a900473ffffffffffffffffffffffffffffffffffffffff1673ffffffffffffffffffffffffffffffffffffffff163373ffffffffffffffffffffffffffffffffffffffff1614610c4657600080fd5b600260019054906101000a900473ffffffffffffffffffffffffffffffffffffffff1673ffffffffffffffffffffffffffffffffffffffff16639d36788e600c546040518263ffffffff1660e01b81526004018082815260200191505060206040518083038186803b158015610cbb57600080fd5b505afa158015610ccf573d6000803e3d6000fd5b505050506040513d6020811015610ce557600080fd5b8101908080519060200190929190505050610d68576040517f08c379a00000000000000000000000000000000000000000000000000000000081526004018080602001828103825260138152602001807f546f6b656e20646f65736e27742065786973740000000000000000000000000081525060200191505060405180910390fd5b600280811115610d7457fe5b600260009054906101000a900460ff166002811115610d8f57fe5b14610de5576040517f08c379a0000000000000000000000000000000000000000000000000000000008152600401808060200182810382526033815260200180611e136033913960400191505060405180910390fd5b600154421015610e5d576040517f08c379a00000000000000000000000000000000000000000000000000000000081526004018080602001828103825260168152602001807f41756374696f6e206e6f742079657420656e6465642e0000000000000000000081525060200191505060405180910390fd5b600b60009054906101000a900460ff1615610ec3576040517f08c379a0000000000000000000000000000000000000000000000000000000008152600401808060200182810382526023815260200180611d9d6023913960400191505060405180910390fd5b6001600b60006101000a81548160ff0219169083151502179055507fdaec4582d5d9595688c8c98545fdd1c696d41c6aeaeb636737e84ed2f5c00eda600460009054906101000a900473ffffffffffffffffffffffffffffffffffffffff16600554604051808373ffffffffffffffffffffffffffffffffffffffff1673ffffffffffffffffffffffffffffffffffffffff1681526020018281526020019250505060405180910390a16000809054906101000a900473ffffffffffffffffffffffffffffffffffffffff1673ffffffffffffffffffffffffffffffffffffffff166108fc6005549081150290604051600060405180830381858888f19350505050158015610fd6573d6000803e3d6000fd5b50600260019054906101000a900473ffffffffffffffffffffffffffffffffffffffff1673ffffffffffffffffffffffffffffffffffffffff166323b872dd30600460009054906101000a900473ffffffffffffffffffffffffffffffffffffffff16600c546040518463ffffffff1660e01b8152600401808473ffffffffffffffffffffffffffffffffffffffff1673ffffffffffffffffffffffffffffffffffffffff1681526020018373ffffffffffffffffffffffffffffffffffffffff1673ffffffffffffffffffffffffffffffffffffffff1681526020018281526020019350505050600060405180830381600087803b1580156110d857600080fd5b505af11580156110ec573d6000803e3d6000fd5b50505050565b6000809054906101000a900473ffffffffffffffffffffffffffffffffffffffff1681565b6000600260019054906101000a900473ffffffffffffffffffffffffffffffffffffffff1673ffffffffffffffffffffffffffffffffffffffff16639d36788e600c546040518263ffffffff1660e01b81526004018082815260200191505060206040518083038186803b15801561118e57600080fd5b505afa1580156111a2573d6000803e3d6000fd5b505050506040513d60208110156111b857600080fd5b810190808051906020019092919050505061123b576040517f08c379a00000000000000000000000000000000000000000000000000000000081526004018080602001828103825260138152602001807f546f6b656e20646f65736e27742065786973740000000000000000000000000081525060200191505060405180910390fd5b600460009054906101000a900473ffffffffffffffffffffffffffffffffffffffff1673ffffffffffffffffffffffffffffffffffffffff163373ffffffffffffffffffffffffffffffffffffffff1614156112e2576040517f08c379a0000000000000000000000000000000000000000000000000000000008152600401808060200182810382526032815260200180611d176032913960400191505060405180910390fd5b6002808111156112ee57fe5b600260009054906101000a900460ff16600281111561130957fe5b1480156113225750600b60009054906101000a900460ff165b8061132f57506001544210155b6113a1576040517f08c379a00000000000000000000000000000000000000000000000000000000081526004018080602001828103825260168152602001807f41756374696f6e206e6f742079657420656e6465642e0000000000000000000081525060200191505060405180910390fd5b6000600960003373ffffffffffffffffffffffffffffffffffffffff1673ffffffffffffffffffffffffffffffffffffffff16815260200190815260200160002054905060008111156114bb576000600960003373ffffffffffffffffffffffffffffffffffffffff1673ffffffffffffffffffffffffffffffffffffffff168152602001908152602001600020819055503373ffffffffffffffffffffffffffffffffffffffff166108fc829081150290604051600060405180830381858888f193505050506114ba5780600960003373ffffffffffffffffffffffffffffffffffffffff1673ffffffffffffffffffffffffffffffffffffffff1681526020019081526020016000208190555060009150506114c1565b5b60019150505b90565b60085481565b60015481565b6000600a60008373ffffffffffffffffffffffffffffffffffffffff1673ffffffffffffffffffffffffffffffffffffffff168152602001908152602001600020549050919050565b600a6020528060005260406000206000915090505481565b600260019054906101000a900473ffffffffffffffffffffffffffffffffffffffff1673ffffffffffffffffffffffffffffffffffffffff16639d36788e600c546040518263ffffffff1660e01b81526004018082815260200191505060206040518083038186803b1580156115a657600080fd5b505afa1580156115ba573d6000803e3d6000fd5b505050506040513d60208110156115d057600080fd5b8101908080519060200190929190505050611653576040517f08c379a00000000000000000000000000000000000000000000000000000000081526004018080602001828103825260138152602001807f546f6b656e20646f65736e27742065786973740000000000000000000000000081525060200191505060405180910390fd5b6000600281111561166057fe5b600260009054906101000a900460ff16600281111561167b57fe5b14801561169e57506001600281111561169057fe5b81600281111561169c57fe5b145b806116ef5750600160028111156116b157fe5b600260009054906101000a900460ff1660028111156116cc57fe5b1480156116ee57506002808111156116e057fe5b8160028111156116ec57fe5b145b5b611761576040517f08c379a00000000000000000000000000000000000000000000000000000000081526004018080602001828103825260118152602001807f57726f6e67207374617465206f7264657200000000000000000000000000000081525060200191505060405180910390fd5b600360009054906101000a900473ffffffffffffffffffffffffffffffffffffffff1673ffffffffffffffffffffffffffffffffffffffff163373ffffffffffffffffffffffffffffffffffffffff16146117bb57600080fd5b600060028111156117c857fe5b600260009054906101000a900460ff1660028111156117e357fe5b1415611c13573073ffffffffffffffffffffffffffffffffffffffff16600260019054906101000a900473ffffffffffffffffffffffffffffffffffffffff1673ffffffffffffffffffffffffffffffffffffffff1663081812fc600c546040518263ffffffff1660e01b81526004018082815260200191505060206040518083038186803b15801561187557600080fd5b505afa158015611889573d6000803e3d6000fd5b505050506040513d602081101561189f57600080fd5b810190808051906020019092919050505073ffffffffffffffffffffffffffffffffffffffff161461191c576040517f08c379a0000000000000000000000000000000000000000000000000000000008152600401808060200182810382526033815260200180611d6a6033913960400191505060405180910390fd5b600260019054906101000a900473ffffffffffffffffffffffffffffffffffffffff1673ffffffffffffffffffffffffffffffffffffffff166323b872dd600260019054906101000a900473ffffffffffffffffffffffffffffffffffffffff1673ffffffffffffffffffffffffffffffffffffffff16636352211e600c546040518263ffffffff1660e01b81526004018082815260200191505060206040518083038186803b1580156119cf57600080fd5b505afa1580156119e3573d6000803e3d6000fd5b505050506040513d60208110156119f957600080fd5b810190808051906020019092919050505030600c546040518463ffffffff1660e01b8152600401808473ffffffffffffffffffffffffffffffffffffffff1673ffffffffffffffffffffffffffffffffffffffff1681526020018373ffffffffffffffffffffffffffffffffffffffff1673ffffffffffffffffffffffffffffffffffffffff1681526020018281526020019350505050600060405180830381600087803b158015611aaa57600080fd5b505af1158015611abe573d6000803e3d6000fd5b505050503073ffffffffffffffffffffffffffffffffffffffff16600260019054906101000a900473ffffffffffffffffffffffffffffffffffffffff1673ffffffffffffffffffffffffffffffffffffffff16636352211e600c546040518263ffffffff1660e01b81526004018082815260200191505060206040518083038186803b158015611b4e57600080fd5b505afa158015611b62573d6000803e3d6000fd5b505050506040513d6020811015611b7857600080fd5b810190808051906020019092919050505073ffffffffffffffffffffffffffffffffffffffff1614611c12576040517f08c379a000000000000000000000000000000000000000000000000000000000815260040180806020018281038252601e8152602001807f636f6e7472616374206973206e6f74206f776e6572206f6620746f6b656e000081525060200191505060405180910390fd5b5b80600260006101000a81548160ff02191690836002811115611c3157fe5b021790555050565b600260009054906101000a900460ff1681565b60075481565b600460009054906101000a900473ffffffffffffffffffffffffffffffffffffffff1681565b60008060006005541415611cc5576000600754606460065481611c9757fe5b04026006540190506000600854606460065481611cb057fe5b04026006540190508181935093505050611d00565b6000600754606460055481611cd657fe5b04026005540190506000600854606460055481611cef57fe5b040260055401905081819350935050505b9091565b600c5481565b60055481565b6006548156fe596f752063616e277420776974686472617720796f7572206269642c2073696e636520796f75206172652077696e6e657221596f752061726520616c7265616479207468652068696768657374426964646572596f75206d75737420617070726f76652061756374696f6e20746f206f706572617465207769746820796f757220746f6b656e61756374696f6e456e642068617320616c7265616479206265656e2063616c6c65642e596f757220626964206973206f7574206f6620616c6c6f7765642072616e6765202873746172742941756374696f6e20646f65736e27742061636365707420626964732061742074686973206d6f6d656e742e41756374696f6e20646f65736e277420616c6c6f772072657665616c2077696e6e65722061742074686973206d6f6d656e742e596f757220626964206973206f7574206f6620616c6c6f7765642072616e676520a265627a7a72315820b7618f0d7e756e906f3d84c88a9e8869acd8abfcc87581f95c5a044c1fed9d3c64736f6c63430005100032",
  "source": "// AuctionBox.sol\n// We will be using Solidity version 0.5.3\npragma solidity 0.5.16;\n// Importing OpenZeppelin's SafeMath Implementation\nimport \"./SafeMath.sol\";\nimport \"./Diamond.sol\";\n\ncontract AuctionBox{\n    Diamond private token;\n    address internal admin;\n    \n    \n    EnglishAuction[] public auctions; \n    constructor() public {\n        admin = msg.sender;\n    }   \n    \n    modifier onlyOwner {\n        require(msg.sender == admin);\n        _;\n    }\n    function createAuction (Diamond _token, address payable _beneficiary, uint _biddingTime, \n                            uint _startPrice, uint256 _token_id, uint256 _step_min, uint256 _step_max)  onlyOwner public{\n        // set the new instance\n        EnglishAuction newEnglishAuction = new EnglishAuction(_token, msg.sender,\n            _biddingTime, _beneficiary, _startPrice, _token_id, _step_min, _step_max);\n        // push the auction address to auctions array\n        auctions.push(newEnglishAuction);\n    }\n    \n    function returnAllAuctions() public view returns(EnglishAuction[] memory){\n        return auctions;\n    }\n}\n\ncontract EnglishAuction {\n    // Auction possible states\n    enum AuctionStates {Init, AcceptBids, RevealWinner}\n    \n    // Parameters of the auction. Times are either\n    // absolute unix timestamps (seconds since 1970-01-01)\n    // or time periods in seconds.\n    \n    address payable public beneficiary;\n    uint public auctionEndTime;\n    AuctionStates public auctionState; // Current auction state\n    Diamond private token;\n    address private auction_owner;\n    modifier onlyOwner {\n        require(msg.sender == auction_owner);\n        _;\n    }\n\n    modifier tokenExist {\n        require(token.isExists(token_id), \"Token doesn't exist\");\n        _;\n    }\n\n    // Current state of the auction.\n    address public highestBidder;\n    uint public highestBid;\n    uint public startPrice;\n    uint public step_min;\n    uint public step_max;\n    \n    //uint public MIN_PERCENT = 0.005; \n    //uint public MAX_PERCENT = 0.05;\n    // Allowed withdrawals of previous bids\n    mapping(address => uint) pendingReturns;\n    mapping(address => uint) public participant_latest_bid;\n\n    // Set to true at the end, disallows any change.\n    // By default initialized to `false`.\n    bool public is_ended;\n    \n    uint256 public token_id;\n\n    // Events that will be emitted on changes.\n    event HighestBidIncreased(address bidder, uint amount);\n    event AuctionEnded(address winner, uint amount);\n\n    // The following is a so-called natspec comment,\n    // recognizable by the three slashes.\n    // It will be shown when the user is asked to\n    // confirm a transaction.\n\n    /// Create a simple auction with `_biddingTime`\n    /// seconds bidding time on behalf of the\n    /// beneficiary address `_beneficiary`.\n    constructor(\n        Diamond _token,\n        address _auction_owner,\n        uint _biddingTime,\n        address payable _beneficiary,\n        uint _startPrice,\n        uint256 _token_id,\n        uint256 _step_min,\n        uint256 _step_max\n            ) public {\n        \n        token = _token;\n        beneficiary = _beneficiary;\n        auctionEndTime = now + _biddingTime;\n        startPrice = _startPrice;\n        auction_owner = _auction_owner;\n        token_id = _token_id;\n        step_min = _step_min;\n        step_max = _step_max;\n        auctionState = AuctionStates.Init;\n    }\n    \n    // Changes auction state. Only owner can call this function\n    function changeAuctionState(AuctionStates state) tokenExist public {\n        // Revert call if sender is not owner of token.\n        require(\n            (auctionState == AuctionStates.Init && state == AuctionStates.AcceptBids) ||\n            (auctionState == AuctionStates.AcceptBids && state == AuctionStates.RevealWinner), \"Wrong state order\");  // guarantees auction order\n        require(msg.sender == auction_owner);\n        if (auctionState == AuctionStates.Init){\n            require(token.getApproved(token_id) == address(this), \"You must approve auction to operate with your token\");\n            token.transferFrom(token.ownerOf(token_id), address(this), token_id);  // guarantee that owner can't remove approval after init stage\n            require(token.ownerOf(token_id) == address(this), \"contract is not owner of token\");\n        }\n\n        auctionState = state;\n    }\n\n    /// Bid on the auction with the value sent\n    /// together with this transaction.\n    /// The value will only be refunded if the\n    /// auction is not won.\n    function bid() tokenExist public payable {\n        // No arguments are necessary, all\n        // information is already part of\n        // the transaction. The keyword payable\n        // is required for the function to\n        // be able to receive Ether.\n\n        // Revert the call if the bidding\n        // period is over.\n        \n        // Revert the call if auction bids accept period is over.\n        require(auctionState == AuctionStates.AcceptBids, \"Auction doesn't accept bids at this moment.\");\n        require(now <= auctionEndTime,\"Auction already ended.\");\n        require(msg.sender != highestBidder, \"You are already the highestBidder\");\n        // If the bid is not higher, send the\n        // money back.\n        require(msg.value + participant_latest_bid[msg.sender] >= startPrice); //msg.value (delta) + latest_bid\n        //if (highestBid == 0) {\n        //    require(msg.value + participant_latest_bid[msg.sender] > (1 + step_min/1000) wei * startPrice &&  msg.value + participant_latest_bid[msg.sender] < (1 + step_max/100) * startPrice, \"Your bid is out of allowed range (start)\");  /// \n        //} else {\n        //    require(msg.value + participant_latest_bid[msg.sender] > (1 + step_min/1000) * highestBid &&  msg.value + participant_latest_bid[msg.sender] < (1 + step_max/100) * highestBid, \"Your bid is out of allowed range \");  /// \n        //}\n        (uint256 min_bid, uint256 max_bid) = bid_range();\n        if (highestBid == 0) {\n            require(msg.value + participant_latest_bid[msg.sender] > min_bid  &&  msg.value + participant_latest_bid[msg.sender] <= max_bid , \"Your bid is out of allowed range (start)\");  /// \n        } else {\n            require(msg.value + participant_latest_bid[msg.sender] > min_bid  &&  msg.value + participant_latest_bid[msg.sender] <= max_bid , \"Your bid is out of allowed range \");  /// \n        }   // !!!! DELTA\n        \n        \n        //require(msg.value + participant_latest_bid[msg.sender] > (1 + step_min/1000) * highestBid &&  msg.value + participant_latest_bid[msg.sender] < (1 + step_max/100) * highestBid, \"Your bid is out of allowed range \");  /// msg.value + old_bid > highestBid + step_min && msg.value + old_bid <= highestBid + step_max\n        \n        // the first bid already in auction\n        if (highestBid != 0) {\n            // Sending back the money by simply using\n            // highestBidder.send(highestBid) is a security risk\n            // because it could execute an untrusted contract.\n            // It is always safer to let the recipients\n            // withdraw their money themselves.\n            pendingReturns[highestBidder] = participant_latest_bid[highestBidder]; /// += --> =\n        }\n\n        highestBidder = msg.sender;\n        highestBid = participant_latest_bid[highestBidder] + msg.value;\n        participant_latest_bid[msg.sender] += msg.value;\n        emit HighestBidIncreased(msg.sender, msg.value);\n    }\n\n    function get_latest_bid(address _address) public view returns (uint256) {\n        return participant_latest_bid[_address];\n    }\n\n    function bid_range() public view returns (uint256, uint256) {\n        if (highestBid == 0) {\n            uint256 a = startPrice + (startPrice/1e2)*step_min;\n            uint256 b = startPrice + (startPrice/1e2)*step_max;\n            return (a, b);\n        } else {\n            uint256 a = highestBid + (highestBid/1e2)*step_min;\n            uint256 b = highestBid + (highestBid/1e2)*step_max;\n            return (a, b);\n        }\n\n        \n    }\n    /// Withdraw a bid that was overbid.\n    function withdraw() public tokenExist returns (bool) {\n        // 1. Conditions\n        require(msg.sender != highestBidder, \"You can't withdraw your bid, since you are winner!\");\n        require((auctionState == AuctionStates.RevealWinner && is_ended) || now >= auctionEndTime , \"Auction not yet ended.\");\n        uint amount = pendingReturns[msg.sender];\n        if (amount > 0) {\n            // It is important to set this to zero because the recipient\n            // can call this function again as part of the receiving call\n            // before `send` returns.\n            pendingReturns[msg.sender] = 0;\n\n            if (!msg.sender.send(amount)) {\n                // No need to call throw here, just reset the amount owing\n                pendingReturns[msg.sender] = amount;\n                return false;\n            }\n        }\n        return true;\n    }\n\n    /// End the auction and send the highest bid\n    /// to the beneficiary.\n    function auctionEnd() public onlyOwner tokenExist {\n        // It is a good guideline to structure functions that interact\n        // with other contracts (i.e. they call functions or send Ether)\n        // into three phases:\n        // 1. checking conditions\n        // 2. performing actions (potentially changing conditions)\n        // 3. interacting with other contracts\n        // If these phases are mixed up, the other contract could call\n        // back into the current contract and modify the state or cause\n        // effects (ether payout) to be performed multiple times.\n        // If functions called internally include interaction with external\n        // contracts, they also have to be considered interaction with\n        // external contracts.\n        // Revert the call if auction bids accept period is over.\n        require(auctionState == AuctionStates.RevealWinner, \"Auction doesn't allow reveal winner at this moment.\");\n        // 1. Conditions\n        require(now >= auctionEndTime, \"Auction not yet ended.\");\n        require(!is_ended, \"auctionEnd has already been called.\");\n\n        // 2. Effects\n        is_ended = true;\n        emit AuctionEnded(highestBidder, highestBid);\n\n        // 3. Interaction\n        beneficiary.transfer(highestBid);\n        token.transferFrom(address(this), highestBidder, token_id);\n        \n    }\n}",
  "sourcePath": "/home/mrfox131/WORK/dockerized/ganache/contracts_src/EnglishAuction.sol",
  "compiler": {
    "name": "solc",
    "version": "0.5.16+commit.9c3226ce.Emscripten.clang"
  },
  "schemaVersion": "3.4.3",
  "updatedAt": "2021-11-20T04:28:46.233Z",
  "devdoc": {
    "methods": {}
  },
  "userdoc": {
    "methods": {
      "auctionEnd()": {
        "notice": "End the auction and send the highest bid to the beneficiary."
      },
      "bid()": {
        "notice": "Bid on the auction with the value sent together with this transaction. The value will only be refunded if the auction is not won."
      },
      "constructor": "Create a simple auction with `_biddingTime` seconds bidding time on behalf of the beneficiary address `_beneficiary`.",
      "withdraw()": {
        "notice": "Withdraw a bid that was overbid."
      }
    }
  }
}